{
  "_format": "hh-sol-artifact-1",
  "contractName": "SimpleEnterpriseTokenSwap",
  "sourceName": "contracts/SimpleEnterpriseTokenSwap.sol",
  "abi": [
    {
      "inputs": [
        {
          "internalType": "address",
          "name": "_platformToken",
          "type": "address"
        }
      ],
      "stateMutability": "nonpayable",
      "type": "constructor"
    },
    {
      "anonymous": false,
      "inputs": [
        {
          "indexed": true,
          "internalType": "address",
          "name": "token",
          "type": "address"
        }
      ],
      "name": "EnterpriseTokenSet",
      "type": "event"
    },
    {
      "anonymous": false,
      "inputs": [
        {
          "indexed": true,
          "internalType": "address",
          "name": "token",
          "type": "address"
        }
      ],
      "name": "TokenAssociated",
      "type": "event"
    },
    {
      "anonymous": false,
      "inputs": [
        {
          "indexed": true,
          "internalType": "address",
          "name": "account",
          "type": "address"
        },
        {
          "indexed": false,
          "internalType": "uint256",
          "name": "amount",
          "type": "uint256"
        },
        {
          "indexed": false,
          "internalType": "uint256",
          "name": "timestamp",
          "type": "uint256"
        }
      ],
      "name": "TokensSwapped",
      "type": "event"
    },
    {
      "inputs": [],
      "name": "admin",
      "outputs": [
        {
          "internalType": "address",
          "name": "",
          "type": "address"
        }
      ],
      "stateMutability": "view",
      "type": "function"
    },
    {
      "inputs": [],
      "name": "enterpriseToken",
      "outputs": [
        {
          "internalType": "address",
          "name": "",
          "type": "address"
        }
      ],
      "stateMutability": "view",
      "type": "function"
    },
    {
      "inputs": [],
      "name": "getAdmin",
      "outputs": [
        {
          "internalType": "address",
          "name": "",
          "type": "address"
        }
      ],
      "stateMutability": "view",
      "type": "function"
    },
    {
      "inputs": [],
      "name": "getContractStablecoinBalance",
      "outputs": [
        {
          "internalType": "uint256",
          "name": "",
          "type": "uint256"
        }
      ],
      "stateMutability": "view",
      "type": "function"
    },
    {
      "inputs": [],
      "name": "getEnterpriseToken",
      "outputs": [
        {
          "internalType": "address",
          "name": "",
          "type": "address"
        }
      ],
      "stateMutability": "view",
      "type": "function"
    },
    {
      "inputs": [],
      "name": "getPlatformToken",
      "outputs": [
        {
          "internalType": "address",
          "name": "",
          "type": "address"
        }
      ],
      "stateMutability": "view",
      "type": "function"
    },
    {
      "inputs": [],
      "name": "platformToken",
      "outputs": [
        {
          "internalType": "address",
          "name": "",
          "type": "address"
        }
      ],
      "stateMutability": "view",
      "type": "function"
    },
    {
      "inputs": [
        {
          "internalType": "address",
          "name": "_enterpriseToken",
          "type": "address"
        }
      ],
      "name": "setEnterpriseToken",
      "outputs": [],
      "stateMutability": "nonpayable",
      "type": "function"
    },
    {
      "inputs": [
        {
          "internalType": "uint256",
          "name": "_amount",
          "type": "uint256"
        }
      ],
      "name": "swap",
      "outputs": [
        {
          "internalType": "bool",
          "name": "",
          "type": "bool"
        }
      ],
      "stateMutability": "nonpayable",
      "type": "function"
    }
  ],
  "bytecode": "0x608060405234801561001057600080fd5b50604051610a89380380610a8983398101604081905261002f916101bd565b6001600160a01b03811661008a5760405162461bcd60e51b815260206004820152601e60248201527f496e76616c696420706c6174666f726d20746f6b656e2061646472657373000060448201526064015b60405180910390fd5b600080546001600160a01b031990811633178255600180546001600160a01b03851692168217905560405163248a35ef60e11b81523060048201526024810191909152610167906349146bde906044016020604051808303816000875af11580156100f9573d6000803e3d6000fd5b505050506040513d601f19601f8201168201806040525081019061011d91906101ed565b60030b9050601681146101825760405162461bcd60e51b815260206004820152602760248201527f4661696c656420746f206173736f6369617465207769746820706c6174666f7260448201526636903a37b5b2b760c91b6064820152608401610081565b6040516001600160a01b038316907fbbbf805ef99ca7d0b7d2cc769719f2a281c9b3331a3642efa75a712e3094a16690600090a25050610210565b6000602082840312156101cf57600080fd5b81516001600160a01b03811681146101e657600080fd5b9392505050565b6000602082840312156101ff57600080fd5b81518060030b81146101e657600080fd5b61086a8061021f6000396000f3fe608060405234801561001057600080fd5b50600436106100935760003560e01c80636e9960c3116100665780636e9960c31461010457806394b918de146101155780639ed374f714610138578063d1b812cd14610149578063f851a4401461015c57600080fd5b806348b64716146100985780634b2961d9146100c857806360f87087146100de57806368616a9c146100ef575b600080fd5b6002546100ab906001600160a01b031681565b6040516001600160a01b0390911681526020015b60405180910390f35b6100d061016f565b6040519081526020016100bf565b6002546001600160a01b03166100ab565b6101026100fd366004610780565b610241565b005b6000546001600160a01b03166100ab565b6101286101233660046107b0565b61045b565b60405190151581526020016100bf565b6001546001600160a01b03166100ab565b6001546100ab906001600160a01b031681565b6000546100ab906001600160a01b031681565b600154604051306024820152600091829182916001600160a01b03169060440160408051601f198184030181529181526020820180516001600160e01b03166370a0823160e01b179052516101c491906107c9565b600060405180830381855afa9150503d80600081146101ff576040519150601f19603f3d011682016040523d82523d6000602084013e610204565b606091505b509150915081801561021857506020815110155b15610238578080602001905181019061023191906107f8565b9250505090565b60009250505090565b6000546001600160a01b031633146102aa5760405162461bcd60e51b815260206004820152602160248201527f4f6e6c792061646d696e2063616e2063616c6c20746869732066756e6374696f6044820152603760f91b60648201526084015b60405180910390fd5b6001600160a01b0381166103005760405162461bcd60e51b815260206004820181905260248201527f496e76616c696420656e746572707269736520746f6b656e206164647265737360448201526064016102a1565b60405163248a35ef60e11b81523060048201526001600160a01b0382166024820152600090610167906349146bde906044016020604051808303816000875af1158015610351573d6000803e3d6000fd5b505050506040513d601f19601f820116820180604052508101906103759190610811565b60030b9050601681146103dc5760405162461bcd60e51b815260206004820152602960248201527f4661696c656420746f206173736f6369617465207769746820656e746572707260448201526834b9b2903a37b5b2b760b91b60648201526084016102a1565b600280546001600160a01b0319166001600160a01b0384169081179091556040517fc25bfa285745ae13f53ec7b5b88f51a2b93a088d4977fe6f86e26a020ebfac6190600090a26040516001600160a01b038316907fbbbf805ef99ca7d0b7d2cc769719f2a281c9b3331a3642efa75a712e3094a16690600090a25050565b6002546000906001600160a01b03166104b65760405162461bcd60e51b815260206004820152601f60248201527f456e746572707269736520746f6b656e206e6f7420636f6e666967757265640060448201526064016102a1565b600082116105065760405162461bcd60e51b815260206004820181905260248201527f416d6f756e74206d7573742062652067726561746572207468616e207a65726f60448201526064016102a1565b600061051061016f565b9050828110156105775760405162461bcd60e51b815260206004820152602c60248201527f496e73756666696369656e7420706c6174666f726d20737461626c65636f696e60448201526b081a5b8818dbdb9d1c9858dd60a21b60648201526084016102a1565b600254604051639790686d60e01b81526001600160a01b03909116600482015233602482015263ffffffff8416604482015260009061016790639790686d906064016020604051808303816000875af11580156105d8573d6000803e3d6000fd5b505050506040513d601f19601f820116820180604052508101906105fc9190610811565b60030b9050601681146106515760405162461bcd60e51b815260206004820181905260248201527f4661696c656420746f207769706520656e746572707269736520746f6b656e7360448201526064016102a1565b60015460405163eca3691760e01b81526001600160a01b039091166004820152306024820152336044820152600785900b60648201526101679063eca36917906084016020604051808303816000875af11580156106b3573d6000803e3d6000fd5b505050506040513d601f19601f820116820180604052508101906106d79190610811565b60030b90506016811461073c5760405162461bcd60e51b815260206004820152602760248201527f4661696c656420746f207472616e7366657220706c6174666f726d20737461626044820152666c65636f696e7360c81b60648201526084016102a1565b6040805185815242602082015233917f18704ae982dcd24a1beeeed3ecf045ab0520d7b7519b97adf3e4f40bf7efe339910160405180910390a25060019392505050565b60006020828403121561079257600080fd5b81356001600160a01b03811681146107a957600080fd5b9392505050565b6000602082840312156107c257600080fd5b5035919050565b6000825160005b818110156107ea57602081860181015185830152016107d0565b506000920191825250919050565b60006020828403121561080a57600080fd5b5051919050565b60006020828403121561082357600080fd5b81518060030b81146107a957600080fdfea2646970667358221220a20376565129fd8f3566f2d3150589de3ad15690e1059430b93f466def6f424464736f6c63430008140033",
  "linkReferences": {},
  "deployedLinkReferences": {}
}